{"abi":[{"type":"constructor","inputs":[],"stateMutability":"nonpayable"},{"type":"function","name":"owner","inputs":[],"outputs":[{"name":"","type":"address","internalType":"address"}],"stateMutability":"view"},{"type":"function","name":"run","inputs":[{"name":"targets","type":"address[]","internalType":"address[]"},{"name":"payloads","type":"bytes[]","internalType":"bytes[]"}],"outputs":[],"stateMutability":"payable"},{"type":"function","name":"withdraw","inputs":[],"outputs":[],"stateMutability":"nonpayable"}],"bytecode":{"object":"0x60a0604052348015600e575f5ffd5b503373ffffffffffffffffffffffffffffffffffffffff1660808173ffffffffffffffffffffffffffffffffffffffff1681525050608051610af76100685f395f8181609501528181610124015261033d0152610af75ff3fe608060405260043610610033575f3560e01c80633ccfd60b146100375780634d618e3b1461004d5780638da5cb5b14610069575b5f5ffd5b348015610042575f5ffd5b5061004b610093565b005b61006760048036038101906100629190610659565b6101ec565b005b348015610074575f5ffd5b5061007d61033b565b60405161008a9190610716565b60405180910390f35b7f000000000000000000000000000000000000000000000000000000000000000073ffffffffffffffffffffffffffffffffffffffff163373ffffffffffffffffffffffffffffffffffffffff1614610121576040517f08c379a000000000000000000000000000000000000000000000000000000000815260040161011890610789565b60405180910390fd5b5f7f000000000000000000000000000000000000000000000000000000000000000073ffffffffffffffffffffffffffffffffffffffff1647604051610166906107d4565b5f6040518083038185875af1925050503d805f81146101a0576040519150601f19603f3d011682016040523d82523d5f602084013e6101a5565b606091505b50509050806101e9576040517f08c379a00000000000000000000000000000000000000000000000000000000081526004016101e090610832565b60405180910390fd5b50565b5f5f90505b84849050811015610334575f5f86868481811061021157610210610850565b5b905060200201602081019061022691906108a7565b73ffffffffffffffffffffffffffffffffffffffff1685858581811061024f5761024e610850565b5b905060200281019061026191906108de565b60405161026f929190610972565b5f604051808303815f865af19150503d805f81146102a8576040519150601f19603f3d011682016040523d82523d5f602084013e6102ad565b606091505b50915091508161032557816102c18461035f565b826040516020016102d39291906109dc565b60405160208183030381529060405290610323576040517f08c379a000000000000000000000000000000000000000000000000000000000815260040161031a9190610a47565b60405180910390fd5b505b505080806001019150506101f1565b5050505050565b7f000000000000000000000000000000000000000000000000000000000000000081565b60605f600161036d8461044a565b0190505f8167ffffffffffffffff81111561038b5761038a610a67565b5b6040519080825280601f01601f1916602001820160405280156103bd5781602001600182028036833780820191505090505b5090505f82602001820190505b60011561041e578080600190039150507f3031323334353637383961626364656600000000000000000000000000000000600a86061a8153600a858161041357610412610a94565b5b0494505f85036103ca575b81826040516020016104319291906109dc565b6040516020818303038152906040529350505050919050565b5f5f5f90507a184f03e93ff9f4daa797ed6e38ed64bf6a1f01000000000000000083106104a6577a184f03e93ff9f4daa797ed6e38ed64bf6a1f010000000000000000838161049c5761049b610a94565b5b0492506040810190505b6d04ee2d6d415b85acef810000000083106104e3576d04ee2d6d415b85acef810000000083816104d9576104d8610a94565b5b0492506020810190505b662386f26fc10000831061051257662386f26fc10000838161050857610507610a94565b5b0492506010810190505b6305f5e100831061053b576305f5e100838161053157610530610a94565b5b0492506008810190505b612710831061056057612710838161055657610555610a94565b5b0492506004810190505b60648310610583576064838161057957610578610a94565b5b0492506002810190505b600a8310610592576001810190505b80915050919050565b5f5ffd5b5f5ffd5b5f5ffd5b5f5ffd5b5f5ffd5b5f5f83601f8401126105c4576105c36105a3565b5b8235905067ffffffffffffffff8111156105e1576105e06105a7565b5b6020830191508360208202830111156105fd576105fc6105ab565b5b9250929050565b5f5f83601f840112610619576106186105a3565b5b8235905067ffffffffffffffff811115610636576106356105a7565b5b602083019150836020820283011115610652576106516105ab565b5b9250929050565b5f5f5f5f604085870312156106715761067061059b565b5b5f85013567ffffffffffffffff81111561068e5761068d61059f565b5b61069a878288016105af565b9450945050602085013567ffffffffffffffff8111156106bd576106bc61059f565b5b6106c987828801610604565b925092505092959194509250565b5f73ffffffffffffffffffffffffffffffffffffffff82169050919050565b5f610700826106d7565b9050919050565b610710816106f6565b82525050565b5f6020820190506107295f830184610707565b92915050565b5f82825260208201905092915050565b7f4e6f74206f776e657200000000000000000000000000000000000000000000005f82015250565b5f61077360098361072f565b915061077e8261073f565b602082019050919050565b5f6020820190508181035f8301526107a081610767565b9050919050565b5f81905092915050565b50565b5f6107bf5f836107a7565b91506107ca826107b1565b5f82019050919050565b5f6107de826107b4565b9150819050919050565b7f5769746864726177616c206661696c65640000000000000000000000000000005f82015250565b5f61081c60118361072f565b9150610827826107e8565b602082019050919050565b5f6020820190508181035f83015261084981610810565b9050919050565b7f4e487b71000000000000000000000000000000000000000000000000000000005f52603260045260245ffd5b610886816106f6565b8114610890575f5ffd5b50565b5f813590506108a18161087d565b92915050565b5f602082840312156108bc576108bb61059b565b5b5f6108c984828501610893565b91505092915050565b5f5ffd5b5f5ffd5b5f5ffd5b5f5f833560016020038436030381126108fa576108f96108d2565b5b80840192508235915067ffffffffffffffff82111561091c5761091b6108d6565b5b602083019250600182023603831315610938576109376108da565b5b509250929050565b828183375f83830152505050565b5f61095983856107a7565b9350610966838584610940565b82840190509392505050565b5f61097e82848661094e565b91508190509392505050565b5f81519050919050565b5f81905092915050565b8281835e5f83830152505050565b5f6109b68261098a565b6109c08185610994565b93506109d081856020860161099e565b80840191505092915050565b5f6109e782856109ac565b91506109f382846109ac565b91508190509392505050565b5f601f19601f8301169050919050565b5f610a198261098a565b610a23818561072f565b9350610a3381856020860161099e565b610a3c816109ff565b840191505092915050565b5f6020820190508181035f830152610a5f8184610a0f565b905092915050565b7f4e487b71000000000000000000000000000000000000000000000000000000005f52604160045260245ffd5b7f4e487b71000000000000000000000000000000000000000000000000000000005f52601260045260245ffdfea264697066735822122085318306b8d963c07c401581c459d5c107e7980979b033b9bdc8bbd9373291b464736f6c634300081c0033","linkReferences":{}},"methodIdentifiers":{"owner()":"8da5cb5b","run(address[],bytes[])":"4d618e3b","withdraw()":"3ccfd60b"},"id":0}